{
  "_format": "hh-sol-artifact-1",
  "contractName": "AuctionMarketplace",
  "sourceName": "contracts/AuctionMarketplace.sol",
  "abi": [
    {
      "anonymous": false,
      "inputs": [
        {
          "indexed": true,
          "internalType": "uint256",
          "name": "auctionId",
          "type": "uint256"
        }
      ],
      "name": "AuctionCancelled",
      "type": "event"
    },
    {
      "anonymous": false,
      "inputs": [
        {
          "indexed": true,
          "internalType": "uint256",
          "name": "auctionId",
          "type": "uint256"
        },
        {
          "indexed": true,
          "internalType": "address",
          "name": "seller",
          "type": "address"
        },
        {
          "indexed": false,
          "internalType": "string",
          "name": "itemId",
          "type": "string"
        },
        {
          "indexed": false,
          "internalType": "uint256",
          "name": "endTime",
          "type": "uint256"
        }
      ],
      "name": "AuctionCreated",
      "type": "event"
    },
    {
      "anonymous": false,
      "inputs": [
        {
          "indexed": true,
          "internalType": "uint256",
          "name": "auctionId",
          "type": "uint256"
        },
        {
          "indexed": true,
          "internalType": "address",
          "name": "winner",
          "type": "address"
        },
        {
          "indexed": false,
          "internalType": "uint256",
          "name": "amount",
          "type": "uint256"
        }
      ],
      "name": "AuctionEnded",
      "type": "event"
    },
    {
      "anonymous": false,
      "inputs": [
        {
          "indexed": true,
          "internalType": "uint256",
          "name": "auctionId",
          "type": "uint256"
        },
        {
          "indexed": true,
          "internalType": "address",
          "name": "bidder",
          "type": "address"
        },
        {
          "indexed": false,
          "internalType": "uint256",
          "name": "amount",
          "type": "uint256"
        }
      ],
      "name": "BidPlaced",
      "type": "event"
    },
    {
      "anonymous": false,
      "inputs": [
        {
          "indexed": true,
          "internalType": "address",
          "name": "bidder",
          "type": "address"
        },
        {
          "indexed": false,
          "internalType": "uint256",
          "name": "amount",
          "type": "uint256"
        }
      ],
      "name": "FundsWithdrawn",
      "type": "event"
    },
    {
      "inputs": [
        {
          "internalType": "uint256",
          "name": "",
          "type": "uint256"
        },
        {
          "internalType": "uint256",
          "name": "",
          "type": "uint256"
        }
      ],
      "name": "auctionBids",
      "outputs": [
        {
          "internalType": "address",
          "name": "bidder",
          "type": "address"
        },
        {
          "internalType": "uint256",
          "name": "amount",
          "type": "uint256"
        },
        {
          "internalType": "uint256",
          "name": "timestamp",
          "type": "uint256"
        }
      ],
      "stateMutability": "view",
      "type": "function"
    },
    {
      "inputs": [
        {
          "internalType": "uint256",
          "name": "",
          "type": "uint256"
        }
      ],
      "name": "auctions",
      "outputs": [
        {
          "internalType": "uint256",
          "name": "auctionId",
          "type": "uint256"
        },
        {
          "internalType": "address",
          "name": "seller",
          "type": "address"
        },
        {
          "internalType": "string",
          "name": "itemId",
          "type": "string"
        },
        {
          "internalType": "uint256",
          "name": "startTime",
          "type": "uint256"
        },
        {
          "internalType": "uint256",
          "name": "endTime",
          "type": "uint256"
        },
        {
          "internalType": "uint256",
          "name": "highestBid",
          "type": "uint256"
        },
        {
          "internalType": "address",
          "name": "highestBidder",
          "type": "address"
        },
        {
          "internalType": "bool",
          "name": "ended",
          "type": "bool"
        },
        {
          "internalType": "bool",
          "name": "cancelled",
          "type": "bool"
        }
      ],
      "stateMutability": "view",
      "type": "function"
    },
    {
      "inputs": [
        {
          "internalType": "uint256",
          "name": "_auctionId",
          "type": "uint256"
        }
      ],
      "name": "cancelAuction",
      "outputs": [],
      "stateMutability": "nonpayable",
      "type": "function"
    },
    {
      "inputs": [
        {
          "internalType": "string",
          "name": "_itemId",
          "type": "string"
        },
        {
          "internalType": "uint256",
          "name": "_duration",
          "type": "uint256"
        }
      ],
      "name": "createAuction",
      "outputs": [
        {
          "internalType": "uint256",
          "name": "",
          "type": "uint256"
        }
      ],
      "stateMutability": "nonpayable",
      "type": "function"
    },
    {
      "inputs": [
        {
          "internalType": "uint256",
          "name": "_auctionId",
          "type": "uint256"
        }
      ],
      "name": "endAuction",
      "outputs": [],
      "stateMutability": "nonpayable",
      "type": "function"
    },
    {
      "inputs": [
        {
          "internalType": "uint256",
          "name": "_auctionId",
          "type": "uint256"
        }
      ],
      "name": "getAuction",
      "outputs": [
        {
          "components": [
            {
              "internalType": "uint256",
              "name": "auctionId",
              "type": "uint256"
            },
            {
              "internalType": "address",
              "name": "seller",
              "type": "address"
            },
            {
              "internalType": "string",
              "name": "itemId",
              "type": "string"
            },
            {
              "internalType": "uint256",
              "name": "startTime",
              "type": "uint256"
            },
            {
              "internalType": "uint256",
              "name": "endTime",
              "type": "uint256"
            },
            {
              "internalType": "uint256",
              "name": "highestBid",
              "type": "uint256"
            },
            {
              "internalType": "address",
              "name": "highestBidder",
              "type": "address"
            },
            {
              "internalType": "bool",
              "name": "ended",
              "type": "bool"
            },
            {
              "internalType": "bool",
              "name": "cancelled",
              "type": "bool"
            }
          ],
          "internalType": "struct AuctionMarketplace.Auction",
          "name": "",
          "type": "tuple"
        }
      ],
      "stateMutability": "view",
      "type": "function"
    },
    {
      "inputs": [
        {
          "internalType": "uint256",
          "name": "_auctionId",
          "type": "uint256"
        }
      ],
      "name": "getAuctionBids",
      "outputs": [
        {
          "components": [
            {
              "internalType": "address",
              "name": "bidder",
              "type": "address"
            },
            {
              "internalType": "uint256",
              "name": "amount",
              "type": "uint256"
            },
            {
              "internalType": "uint256",
              "name": "timestamp",
              "type": "uint256"
            }
          ],
          "internalType": "struct AuctionMarketplace.Bid[]",
          "name": "",
          "type": "tuple[]"
        }
      ],
      "stateMutability": "view",
      "type": "function"
    },
    {
      "inputs": [
        {
          "internalType": "uint256",
          "name": "_auctionId",
          "type": "uint256"
        },
        {
          "internalType": "address",
          "name": "_bidder",
          "type": "address"
        }
      ],
      "name": "getPendingReturns",
      "outputs": [
        {
          "internalType": "uint256",
          "name": "",
          "type": "uint256"
        }
      ],
      "stateMutability": "view",
      "type": "function"
    },
    {
      "inputs": [],
      "name": "getTotalAuctions",
      "outputs": [
        {
          "internalType": "uint256",
          "name": "",
          "type": "uint256"
        }
      ],
      "stateMutability": "view",
      "type": "function"
    },
    {
      "inputs": [
        {
          "internalType": "uint256",
          "name": "_auctionId",
          "type": "uint256"
        }
      ],
      "name": "isAuctionActive",
      "outputs": [
        {
          "internalType": "bool",
          "name": "",
          "type": "bool"
        }
      ],
      "stateMutability": "view",
      "type": "function"
    },
    {
      "inputs": [
        {
          "internalType": "uint256",
          "name": "",
          "type": "uint256"
        },
        {
          "internalType": "address",
          "name": "",
          "type": "address"
        }
      ],
      "name": "pendingReturns",
      "outputs": [
        {
          "internalType": "uint256",
          "name": "",
          "type": "uint256"
        }
      ],
      "stateMutability": "view",
      "type": "function"
    },
    {
      "inputs": [
        {
          "internalType": "uint256",
          "name": "_auctionId",
          "type": "uint256"
        }
      ],
      "name": "placeBid",
      "outputs": [],
      "stateMutability": "payable",
      "type": "function"
    },
    {
      "inputs": [
        {
          "internalType": "uint256",
          "name": "_auctionId",
          "type": "uint256"
        }
      ],
      "name": "withdraw",
      "outputs": [],
      "stateMutability": "nonpayable",
      "type": "function"
    }
  ],
  "bytecode": "0x608060405234801561001057600080fd5b50611739806100206000396000f3fe6080604052600436106100c25760003560e01c80638ddac1ef1161007f578063b9a2de3a11610059578063b9a2de3a1461024c578063d86df0c31461026c578063e71f7b151461028c578063ff895239146102bc57600080fd5b80638ddac1ef146101e157806396b5a755146102195780639979ef451461023957600080fd5b80632e1a7d4d146100c75780633ef14cc8146100e9578063571a26a01461010d5780635f93de491461014257806370b4768e1461018757806378bd7935146101b4575b600080fd5b3480156100d357600080fd5b506100e76100e23660046111da565b6102dc565b005b3480156100f557600080fd5b506000545b6040519081526020015b60405180910390f35b34801561011957600080fd5b5061012d6101283660046111da565b6103e6565b60405161010499989796959493929190611239565b34801561014e57600080fd5b5061016261015d3660046112a1565b6104d4565b604080516001600160a01b039094168452602084019290925290820152606001610104565b34801561019357600080fd5b506101a76101a23660046111da565b610520565b60405161010491906112c3565b3480156101c057600080fd5b506101d46101cf3660046111da565b6105cf565b6040516101049190611325565b3480156101ed57600080fd5b506100fa6101fc3660046113cb565b600360209081526000928352604080842090915290825290205481565b34801561022557600080fd5b506100e76102343660046111da565b61077f565b6100e76102473660046111da565b610931565b34801561025857600080fd5b506100e76102673660046111da565b610c3a565b34801561027857600080fd5b506100fa6102873660046113cb565b610e0b565b34801561029857600080fd5b506102ac6102a73660046111da565b610e59565b6040519015158152602001610104565b3480156102c857600080fd5b506100fa6102d736600461141d565b610fc8565b8060005481106103075760405162461bcd60e51b81526004016102fe906114d2565b60405180910390fd5b6000828152600360209081526040808320338452909152902054806103655760405162461bcd60e51b81526020600482015260146024820152734e6f2066756e647320746f20776974686472617760601b60448201526064016102fe565b600083815260036020908152604080832033808552925280832083905551909183156108fc02918491818181858888f193505050501580156103ab573d6000803e3d6000fd5b5060405181815233907feaff4b37086828766ad3268786972c0cd24259d4c87a80f9d3963a3c3d999b0d9060200160405180910390a2505050565b60016020819052600091825260409091208054918101546002820180546001600160a01b03909216929161041990611502565b80601f016020809104026020016040519081016040528092919081815260200182805461044590611502565b80156104925780601f1061046757610100808354040283529160200191610492565b820191906000526020600020905b81548152906001019060200180831161047557829003601f168201915b50505050600383015460048401546005850154600690950154939491939092506001600160a01b0381169060ff600160a01b8204811691600160a81b90041689565b600260205281600052604060002081815481106104f057600080fd5b60009182526020909120600390910201805460018201546002909201546001600160a01b03909116935090915083565b60608160005481106105445760405162461bcd60e51b81526004016102fe906114d2565b600083815260026020908152604080832080548251818502810185019093528083529193909284015b828210156105c2576000848152602090819020604080516060810182526003860290920180546001600160a01b031683526001808201548486015260029091015491830191909152908352909201910161056d565b5050505091505b50919050565b6106346040518061012001604052806000815260200160006001600160a01b031681526020016060815260200160008152602001600081526020016000815260200160006001600160a01b031681526020016000151581526020016000151581525090565b8160005481106106565760405162461bcd60e51b81526004016102fe906114d2565b60008381526001602081815260409283902083516101208101855281548152928101546001600160a01b03169183019190915260028101805492939192918401916106a090611502565b80601f01602080910402602001604051908101604052809291908181526020018280546106cc90611502565b80156107195780601f106106ee57610100808354040283529160200191610719565b820191906000526020600020905b8154815290600101906020018083116106fc57829003601f168201915b50505091835250506003820154602082015260048201546040820152600582015460608201526006909101546001600160a01b038116608083015260ff600160a01b82048116151560a0840152600160a81b90910416151560c090910152915050919050565b8060005481106107a15760405162461bcd60e51b81526004016102fe906114d2565b6000828152600160208190526040909120015482906001600160a01b0316331461080d5760405162461bcd60e51b815260206004820152601960248201527f4f6e6c792073656c6c65722063616e2063616c6c20746869730000000000000060448201526064016102fe565b6000838152600160205260409020600601548390600160a01b900460ff16156108485760405162461bcd60e51b81526004016102fe90611536565b600081815260016020526040902060060154600160a81b900460ff16156108815760405162461bcd60e51b81526004016102fe90611565565b600084815260016020526040902060068101546001600160a01b0316156108ea5760405162461bcd60e51b815260206004820152601f60248201527f43616e6e6f742063616e63656c2061756374696f6e207769746820626964730060448201526064016102fe565b60068101805460ff60a81b1916600160a81b17905560405185907f2809c7e17bf978fbc7194c0a694b638c4215e9140cacc6c38ca36010b45697df90600090a25050505050565b8060005481106109535760405162461bcd60e51b81526004016102fe906114d2565b6000828152600160205260409020600601548290600160a01b900460ff161561098e5760405162461bcd60e51b81526004016102fe90611536565b600081815260016020526040902060060154600160a81b900460ff16156109c75760405162461bcd60e51b81526004016102fe90611565565b600083815260016020526040902060048101544210610a1c5760405162461bcd60e51b8152602060048201526011602482015270105d58dd1a5bdb881a185cc8195b991959607a1b60448201526064016102fe565b60018101546001600160a01b03163303610a6c5760405162461bcd60e51b815260206004820152601160248201527014d95b1b195c8818d85b9b9bdd08189a59607a1b60448201526064016102fe565b60003411610abc5760405162461bcd60e51b815260206004820152601a60248201527f426964206d7573742062652067726561746572207468616e203000000000000060448201526064016102fe565b80600501543411610b235760405162461bcd60e51b815260206004820152602b60248201527f426964206d75737420626520686967686572207468616e2063757272656e742060448201526a1a1a59da195cdd08189a5960aa1b60648201526084016102fe565b60068101546001600160a01b031615610b77576005810154600085815260036020908152604080832060068601546001600160a01b0316845290915281208054909190610b719084906115a6565b90915550505b3460058201819055600682018054336001600160a01b031991821681179092556000878152600260208181526040808420815160608101835287815280840189815242828501908152835460018181018655948952978690209251600390980290920180549098166001600160a01b039097169690961787559451908601559251939091019290925551928352909186917f0e54eff26401bf69b81b26f60bd85ef47f5d85275c1d268d84f68d6897431c4791015b60405180910390a350505050565b806000548110610c5c5760405162461bcd60e51b81526004016102fe906114d2565b6000828152600160205260409020600601548290600160a01b900460ff1615610c975760405162461bcd60e51b81526004016102fe90611536565b600081815260016020526040902060060154600160a81b900460ff1615610cd05760405162461bcd60e51b81526004016102fe90611565565b6000838152600160205260409020600481015442101580610cfd575060018101546001600160a01b031633145b610d5c5760405162461bcd60e51b815260206004820152602a60248201527f41756374696f6e206e6f742079657420656e646564206f722063616c6c6572206044820152693737ba1039b2b63632b960b11b60648201526084016102fe565b60068101805460ff60a01b198116600160a01b179091556001600160a01b031615610dc357600181015460058201546040516001600160a01b039092169181156108fc0291906000818181858888f19350505050158015610dc1573d6000803e3d6000fd5b505b600681015460058201546040519081526001600160a01b039091169085907fd2aa34a4fdbbc6dff6a3e56f46e0f3ae2a31d7785ff3487aa5c95c642acea50190602001610c2c565b6000826000548110610e2f5760405162461bcd60e51b81526004016102fe906114d2565b505060009182526003602090815260408084206001600160a01b0393909316845291905290205490565b6000816000548110610e7d5760405162461bcd60e51b81526004016102fe906114d2565b600083815260016020818152604080842081516101208101835281548152938101546001600160a01b03169284019290925260028201805491840191610ec290611502565b80601f0160208091040260200160405190810160405280929190818152602001828054610eee90611502565b8015610f3b5780601f10610f1057610100808354040283529160200191610f3b565b820191906000526020600020905b815481529060010190602001808311610f1e57829003601f168201915b50505091835250506003820154602082015260048201546040820152600582015460608201526006909101546001600160a01b038116608083015260ff600160a01b82048116151560a0840152600160a81b90910416151560c09091015260e0810151909150158015610fb15750806101000151155b8015610fc05750806080015142105b949350505050565b6000610e1082101561101c5760405162461bcd60e51b815260206004820181905260248201527f4475726174696f6e206d757374206265206174206c65617374203120686f757260448201526064016102fe565b62093a8082111561106f5760405162461bcd60e51b815260206004820152601d60248201527f4475726174696f6e2063616e6e6f74206578636565642037206461797300000060448201526064016102fe565b60008054818061107e836115b9565b909155509050600061109084426115a6565b60408051610120810182528481523360208083019182528284018a815242606085015260808401869052600060a0850181905260c0850181905260e0850181905261010085018190528881526001928390529490942083518155915190820180546001600160a01b0319166001600160a01b0390921691909117905591519293509160028201906111219082611621565b50606082015160038201556080820151600482015560a0820151600582015560c08201516006909101805460e0840151610100909401511515600160a81b0260ff60a81b19941515600160a01b026001600160a81b03199092166001600160a01b03909416939093171792909216179055604051339083907f568694aa4b5066fe5362111fcfda3f97f456688bc2adc2538c2f2c1acf954b34906111c890899086906116e1565b60405180910390a35090505b92915050565b6000602082840312156111ec57600080fd5b5035919050565b6000815180845260005b81811015611219576020818501810151868301820152016111fd565b506000602082860101526020601f19601f83011685010191505092915050565b8981526001600160a01b038981166020830152610120604083018190526000916112658483018c6111f3565b606085019a909a526080840198909852505060a08101949094529190931660c083015291151560e0820152901515610100909101529392505050565b600080604083850312156112b457600080fd5b50508035926020909101359150565b602080825282518282018190526000919060409081850190868401855b8281101561131857815180516001600160a01b03168552868101518786015285015185850152606090930192908501906001016112e0565b5091979650505050505050565b60208152815160208201526000602083015161134c60408401826001600160a01b03169052565b5060408301516101208060608501526113696101408501836111f3565b915060608501516080850152608085015160a085015260a085015160c085015260c08501516113a360e08601826001600160a01b03169052565b5060e08501516101006113b98187018315159052565b90950151151593019290925250919050565b600080604083850312156113de57600080fd5b8235915060208301356001600160a01b03811681146113fc57600080fd5b809150509250929050565b634e487b7160e01b600052604160045260246000fd5b6000806040838503121561143057600080fd5b823567ffffffffffffffff8082111561144857600080fd5b818501915085601f83011261145c57600080fd5b81358181111561146e5761146e611407565b604051601f8201601f19908116603f0116810190838211818310171561149657611496611407565b816040528281528860208487010111156114af57600080fd5b826020860160208301376000602093820184015298969091013596505050505050565b602080825260169082015275105d58dd1a5bdb88191bd95cc81b9bdd08195e1a5cdd60521b604082015260600190565b600181811c9082168061151657607f821691505b6020821081036105c957634e487b7160e01b600052602260045260246000fd5b602080825260159082015274105d58dd1a5bdb88185b1c9958591e48195b991959605a1b604082015260600190565b602080825260119082015270105d58dd1a5bdb8818d85b98d95b1b1959607a1b604082015260600190565b634e487b7160e01b600052601160045260246000fd5b808201808211156111d4576111d4611590565b6000600182016115cb576115cb611590565b5060010190565b601f82111561161c57600081815260208120601f850160051c810160208610156115f95750805b601f850160051c820191505b8181101561161857828155600101611605565b5050505b505050565b815167ffffffffffffffff81111561163b5761163b611407565b61164f816116498454611502565b846115d2565b602080601f831160018114611684576000841561166c5750858301515b600019600386901b1c1916600185901b178555611618565b600085815260208120601f198616915b828110156116b357888601518255948401946001909101908401611694565b50858210156116d15787850151600019600388901b60f8161c191681555b5050505050600190811b01905550565b6040815260006116f460408301856111f3565b9050826020830152939250505056fea2646970667358221220a84ad251669cea0e6f9ca731e5529398995c53345f5b578332e33b44abb0400d64736f6c63430008140033",
  "linkReferences": {},
  "deployedLinkReferences": {}
}